:100000000C943A000C9457000C9457000C94570031
:100010000C945C020C9490000C9457000C945700C4
:100020000C9457000C9457000C9457000C94DE006D
:100030000C9457000C9457000C9459000C945700E2
:100040000C9457000C9457000C9465010C945700C5
:100050000C9457000C9457000C9457000C945700C4
:100060000C9457000C9457006364696E6F7073753D
:1000700078585B0011241FBECFEFD8E0DEBFCDBFA4
:1000800011E0A0E0B1E0E2E2F8E102C005900D92DB
:10009000A43BB107D9F721E0A4EBB1E001C01D9268
:1000A000AE3FB207E1F70E94D7020C940F0C0C94FC
:1000B00000001F920F920FB60F9211242F938F936F
:1000C0009F938091BA019091BB0101969093BB01DF
:1000D0008093BA018091BA019091BB01803A9F4010
:1000E00039F485B58D7F85BD1092BB011092BA01A0
:1000F0008091B901811105C0449A81E08093B901D2
:1001000007C08091B901882319F044981092B90171
:100110009F918F912F910F900FBE0F901F90189568
:100120001F920F920FB60F9211242F933F934F936C
:100130005F936F937F938F939F93AF93BF93EF934F
:10014000FF934B991AC081E00E94D20160E080E0E9
:100150000E94E40184E091E00E942E02109285004A
:10016000109284008091810084608093810080914E
:100170008100816080938100419A4A990EC08091EC
:1001800081008B7F80938100809181008E7F80939E
:10019000810081E08093C5014198FF91EF91BF916B
:1001A000AF919F918F917F916F915F914F913F910F
:1001B0002F910F900FBE0F901F9018951F920F92C6
:1001C0000FB60F9211242F933F934F935F936F932A
:1001D0007F938F939F93AF93BF93EF93FF93E1E848
:1001E000F0E080818B7F808380818E7F8083419847
:1001F00081E00E94D20160E080E00E94E4018AE098
:1002000091E00E942E02FF91EF91BF91AF919F91DB
:100210008F917F916F915F914F913F912F910F90AF
:100220000FBE0F901F9018959093C5008093C40047
:1002300086E08093C200E1ECF0E0808188618083F9
:100240003D9A08950F931F93CF93DF9300D000D072
:100250001F92CDB7DEB79F938F937F936F938BE100
:1002600091E09F938F931F9285E08F938E010F5F94
:100270001F4F1F930F930E94DB058CE38093C600F2
:100280000FB6F894DEBF0FBECDBF8091C00085FFD2
:10029000FCCFF8018191882339F08093C6008091CA
:1002A000C00085FFFCCFF6CF8EE38093C60080911F
:1002B000C00085FFFCCF0F900F900F900F900F9014
:1002C000DF91CF911F910F9108951F920F920FB65A
:1002D0000F9211242F938F939F93EF93FF9320916D
:1002E000C6002C3361F481E0809301011092B501C6
:1002F0001092B4011092B7011092B6013EC02E3395
:10030000B9F48091B4019091B5011816190684F4DE
:1003100081E090E09093B7018093B60110920101C3
:10032000E091B401F091B501E551FE4F108225C076
:1003300080910101882309F180ED820F8A3030F429
:100340008091B4019091B50104973CF010920101A5
:100350001092B5011092B40110C0E091B401F09177
:10036000B501E551FE4F20838091B4019091B50114
:1003700001969093B5018093B401FF91EF919F9105
:100380008F912F910F900FBE0F901F9018959BB1DA
:100390009F709BB99BB1807F892B8BB9299A299A31
:1003A00029980895CF93C82F28980E94C7018C2FB1
:1003B0008295807F0E94C7018FE39FE10197F1F74B
:1003C00000C00000CF910895811102C080E801C0F3
:1003D00080EC860F0C94D20184B1836084B98AB119
:1003E000806F8AB98FE59AEE0197F1F700C000009F
:1003F00080E30E94C7018FE19EE40197F1F700C0FE
:10040000000080E30E94C7018FED91E00197F1F7B2
:1004100000C0000080E30E94C70180E20E94C70183
:100420008FE39FE10197F1F700C0000088E20E948E
:10043000D2018FE00C94D201CF93C82F289A0E944A
:10044000C7018C2F8295807F0E94C7018FE39FE1B7
:100450000197F1F700C00000CF910895CF93DF938B
:10046000EC018991882319F00E941C02FACFDF91D8
:10047000CF91089586B18093F0018091F00188704A
:100480008093F1019091F00194709093C6019111C5
:1004900007C0811103C01092D70109C081E005C0D7
:1004A000811102C082E001C083E08093D701809176
:1004B000D7018093DA0108951F920F920FB60F9221
:1004C00011242F933F934F935F936F937F938F9359
:1004D0009F93AF93BF93EF93FF9386B18093F00107
:1004E0009091F00198709093F1018091F0018470E7
:1004F0008093C6012091D701211108C0992311F0E2
:1005000081E01DC0882389F182E024C0213049F4B4
:10051000882311F083E013C0911127C01092DA01F3
:100520001BC0223049F4811103C01092DA0109C0C6
:100530009923D9F083E00EC0911109C082E0809325
:10054000DA01809102019091030101960AC08111A4
:100550000CC081E08093DA01809102019091030147
:10056000019790930301809302018091DA01821731
:1005700029F091E09093B8018093D7016091020136
:100580007091030184E690E00E94B30AFF91EF911D
:10059000BF91AF919F918F917F916F915F914F919B
:1005A0003F912F910F900FBE0F901F901895CF93F2
:1005B000DF93CDB7DEB7EB970FB6F894DEBF0FBE73
:1005C000CDBF84E690E00E94AB0A90E090930301D7
:1005D000809302010E94EC0187E690E00E941401E2
:1005E0000E943A0278948091680084608093680049
:1005F0008091680082608093680080916D008C60BB
:1006000080936D0080916C008C6080936C00809171
:10061000C10088608093C1008091C1008061809397
:10062000C1008091C10080688093C10080918100E9
:1006300088608093810080916F00826080936F005A
:1006400084E294EF909389008093880085B5886058
:1006500085BD80916E00826080936E0088EC87BDBE
:10066000399A3C9A88B18C6088B981E00E94D201A5
:1006700060E080E00E94E4018FE191E00E942E02A0
:1006800060E081E00E94E4018AE291E00E942E0293
:100690002FEF33ED80E3215030408040E1F700C080
:1006A000000081E00E94D2011E0193E2290E311C5C
:1006B0008AE0C82ED12CE12CF12C8E010E5E1F4F4A
:1006C000DE011196BFABAEAB9E012C5C3F4F39AF44
:1006D00028AF8091B801813009F04EC01092B80166
:1006E00060E080E00E94E4018BE391E00E942E0232
:1006F00060E081E00E94E4018DE491E00E942E021E
:100700006AE081E00E94E40180910201909103017E
:10071000181619063CF081E090E090930301809355
:1007200002010DC080910201909103018436910570
:1007300034F0A3E6B0E0B0930301A09302018091EE
:100740000201909103019F938F93A8E5B1E0BF93BD
:10075000AF931F9231E13F933F922F920E94DB05AE
:10076000C1010E942E028EEA91E00E942E020FB675
:10077000F894DEBF0FBECDBF8091C501882309F478
:10078000F8C0A0918400B0918500BBAFAAAF2091C2
:10079000840030918500AAE0B0E00E9459059B01D9
:1007A000AC016CED7DE189E790E00E943A05209371
:1007B000C1013093C2014093C3015093C4018090A2
:1007C000C1019090C201A090C301B090C4014090BB
:1007D000C1015090C2016090C3017090C40160914A
:1007E000C1017091C2018091C3019091C401A70120
:1007F00096010E943A05CA01B9010E94A0056093C2
:10080000BD017093BE018093BF019093C0012AADDA
:100810003BADA8EEB3E00E94590529E03DE340E07E
:1008200050E00E943A055F934F933F932F93ACE5BE
:10083000B1E0BF93AF931F9231E13F931F930F93AA
:100840000E94DB05C301B201A70196010E943A058F
:100850009F938F937F936F93C501B401A701960176
:100860000E943A055F934F933F932F93A3E6B1E025
:10087000BF93AF931F9231E13F938FA98F939EA9AE
:100880009F930E94DB056091C1017091C20180912C
:10089000C3019091C4010E9422014091C101509175
:1008A000C2016091C3017091C40120910201309195
:1008B0000301EAE0E29FC001E39F900D1124AA2703
:1008C00097FDA095BA2F0FB6F894DEBF0FBECDBF2F
:1008D00084179507A607B70724F481E08093BC012D
:1008E0001AC081E00E94D20160E080E00E94E40131
:1008F00080E791E00E942E02C8010E942E0260E073
:1009000081E00E94E40188E791E00E942E02CE017E
:1009100001960E942E028091BC01813041F585B57F
:10092000826085BD1092C1011092C2011092C30174
:100930001092C4011092BD011092BE011092BF012D
:100940001092C0011092BC0181E00E94D20163E0CC
:1009500080E00E94E40180E891E00E942E0264E0C1
:1009600081E00E94E4018BE891E00E942E02109247
:10097000C5018091B6019091B701019709F0A9CE08
:1009800081E00E94D20160E080E00E94E40184E9FD
:1009900091E00E942E0260E081E00E94E4018AE47E
:1009A00091E00E942E021DAA1CAA39AD3F9388AD8A
:1009B0008F9385EA91E09F938F938BEE91E09F93C5
:1009C0008F930E940B068CA99DA96AE070E00E949B
:1009D00026059F938F937F936F9388EA91E09F936F
:1009E0008F931F928BE08F9382EF91E09F938F9371
:1009F0000E94DB0582EF91E00E942E0261E181E01E
:100A00000E94E40120910201309103014AE0429FDB
:100A1000C001439F900D11240FB6F894DEBF0FBEA6
:100A2000CDBF2CA93DA9821793071CF485B5826020
:100A300085BD1092D9011092D8011092B501109283
:100A4000B4011092B7011092B60143CE97FB072E66
:100A500016F4009407D077FD09D00E94680507FCC2
:100A600005D03EF4909581959F4F089570956195BE
:100A70007F4F0895052E97FB1EF400940E945105A8
:100A800057FD07D00E947C0507FC03D04EF40C9460
:100A9000510550954095309521953F4F4F4F5F4FF1
:100AA000089590958095709561957F4F8F4F9F4FDA
:100AB0000895A29FB001B39FC001A39F700D811D37
:100AC0001124911DB29F700D811D1124911D089557
:100AD000AA1BBB1B51E107C0AA1FBB1FA617B70764
:100AE00010F0A61BB70B881F991F5A95A9F7809580
:100AF0009095BC01CD010895A1E21A2EAA1BBB1B43
:100B0000FD010DC0AA1FBB1FEE1FFF1FA217B307D9
:100B1000E407F50720F0A21BB30BE40BF50B661FEF
:100B2000771F881F991F1A9469F7609570958095B3
:100B300090959B01AC01BD01CF010895E89409C0D7
:100B400097FB3EF490958095709561957F4F8F4F00
:100B50009F4F9923A9F0F92F96E9BB279395F69516
:100B6000879577956795B795F111F8CFFAF4BB0F94
:100B700011F460FF1BC06F5F7F4F8F4F9F4F16C0F8
:100B8000882311F096E911C0772321F09EE8872F82
:100B9000762F05C0662371F096E8862F70E060E03E
:100BA0002AF09A95660F771F881FDAF7880F9695B7
:100BB000879597F90895AEE0B0E0E1EEF5E00C948A
:100BC000E60B0D891E898F89988D26E02C831A8368
:100BD000098397FF02C080E090E801979E838D8390
:100BE000AE01455E5F4F698D7A8DCE0101960E9400
:100BF00024064D815E8157FD0AC02F81388542173A
:100C000053070CF49A01F801E20FF31F10822E969D
:100C1000E4E00C94020CAEE0B0E0E1E1F6E00C940C
:100C2000E80B85E08C838B899C899A838983AE014C
:100C3000495E5F4F6D897E89CE0101960E947409DD
:100C40002E96E2E00C94040CACE0B0E0EAE2F6E0B0
:100C50000C94D80B7C016B018A01FC01178216826F
:100C6000838181FFBDC1CE0101964C01F7019381C3
:100C7000F60193FD859193FF81916F01882309F41B
:100C8000ABC1853239F493FD859193FF81916F015A
:100C9000853229F4B70190E00E942C0BE7CF512C4C
:100CA000312C20E02032A0F48B3269F030F4803215
:100CB00059F0833269F420612CC08D3239F08033D1
:100CC00039F4216026C02260246023C0286021C03E
:100CD00027FD27C030ED380F3A3078F426FF06C0E4
:100CE000FAE05F9E300D1124532E13C08AE0389E27
:100CF000300D1124332E20620CC08E3221F426FDDB
:100D00006BC1206406C08C3611F4206802C088369E
:100D100041F4F60193FD859193FF81916F0181115B
:100D2000C1CF982F9F7D9554933028F40C5F1F4FAF
:100D3000FFE3F9830DC0833631F0833771F08335DB
:100D400009F05BC022C0F801808189830E5F1F4FCC
:100D500044244394512C540115C03801F2E06F0E25
:100D6000711CF801A080B18026FF03C0652D70E0E2
:100D700002C06FEF7FEFC5012C870E94E30A2C01B0
:100D800083012C852F77222E17C03801F2E06F0ED9
:100D9000711CF801A080B18026FF03C0652D70E0B2
:100DA00002C06FEF7FEFC5012C870E94D80A2C018B
:100DB0002C852068222E830123FC1BC0832D90E00C
:100DC00048165906B0F4B70180E290E00E942C0B5F
:100DD0003A94F4CFF50127FC859127FE81915F01BC
:100DE000B70190E00E942C0B31103A94F1E04F1AB9
:100DF00051084114510471F7E5C0843611F0893669
:100E000039F5F80127FF07C06081718182819381E4
:100E10000C5F1F4F08C060817181882777FD809526
:100E2000982F0E5F1F4F2F76B22E97FF09C0909517
:100E30008095709561957F4F8F4F9F4F2068B22EA0
:100E40002AE030E0A4010E94770BA82EA81844C025
:100E5000853729F42F7EB22E2AE030E025C0F22F0C
:100E6000F97FBF2E8F36C1F018F4883579F0B4C001
:100E7000803719F0883721F0AFC02F2F2061B22EB4
:100E8000B4FE0DC08B2D8460B82E09C024FF0AC0AB
:100E90009F2F9660B92E06C028E030E005C020E103
:100EA00030E002C020E132E0F801B7FE07C0608107
:100EB0007181828193810C5F1F4F06C060817181B7
:100EC00080E090E00E5F1F4FA4010E94770BA82ED8
:100ED000A818FB2DFF77BF2EB6FE0BC02B2D2E7F43
:100EE000A51450F4B4FE0AC0B2FC08C02B2D2E7E0F
:100EF00005C07A2C2B2D03C07A2C01C0752C24FF41
:100F00000DC0FE01EA0DF11D8081803311F4297EB0
:100F100009C022FF06C07394739404C0822F8678A0
:100F200009F0739423FD13C020FF06C05A2C7314DC
:100F300018F4530C5718732C731468F4B70180E23B
:100F400090E02C870E942C0B73942C85F5CF7314A2
:100F500010F4371801C0312C24FF12C0B70180E310
:100F600090E02C870E942C0B2C8522FF17C021FFBC
:100F700003C088E590E002C088E790E0B7010CC0AC
:100F8000822F867859F021FD02C080E201C08BE2F9
:100F900027FD8DE2B70190E00E942C0BA51438F4D8
:100FA000B70180E390E00E942C0B5A94F7CFAA94EB
:100FB000F401EA0DF11D8081B70190E00E942C0B35
:100FC000A110F5CF332009F451CEB70180E290E0B3
:100FD0000E942C0B3A94F6CFF7018681978102C0CC
:100FE0008FEF9FEF2C96E2E10C94F40B20FD09C0EB
:100FF000FC0123FD05C022FF02C07383628351837D
:101000004083089544FD10C046FD10C0DB01FC0183
:10101000AA0FBB1FEE1FFF1F1094D1F76A0F7B1F93
:101020008E1F9F1F31E003C033E001C034E0660F24
:10103000771F881F991F3150D1F7620F711D811DD5
:10104000911D08950F931F93CF93DF938C01C801D7
:101050000E94EE0AEC0197FD08C00E94C50A892B88
:10106000B1F7B801CE010E945E0BCE01DF91CF91A6
:101070001F910F9108958F929F92AF92CF92DF921E
:10108000EF92FF920F931F93CF93DF93EC01A62E65
:101090004A01022F0E94EE0AAC0155274B3251053E
:1010A00021F04D32510551F40068AA9411F480E00A
:1010B00067C0CE010E94EE0A97FDF9CF102F1D7F69
:1010C000302F307301F58033F1F4FF24FA94FA0CD9
:1010D00009F442C0CE010E94EE0A97FD3DC0382FB0
:1010E0003F7D383551F41264AA94AA94A9F1CE0137
:1010F0000E94EE0A97FF07C02FC006FF02C01260D1
:1011000001C01261AF2CC12CD12C760120ED280F2B
:10111000283080F014FF04C0BE010E945E0B19C08D
:101120002A3040F016FFF8CF2F7D3FEE320F3630D9
:1011300098F72750412FC701B6010E9402086B01A2
:101140007C011260AA9459F0CE010E94EE0A97FF2A
:10115000DDCF11FD04C0ABCFC12CD12C760117FF20
:1011600008C0F094E094D094C094C11CD11CE11C40
:10117000F11C212FB701A601C4010E94F60781E0EE
:10118000DF91CF911F910F91FF90EF90DF90CF9063
:10119000AF909F908F900895A1E2B0E0E2EDF8E06B
:1011A0000C94DD0B5C017A018E010F5F1F4F68010B
:1011B00080E2D8011D928A95E9F7F501738040E03D
:1011C00050E0812CB0E0912C81E090E0F90173FCBB
:1011D000A59173FEA1918F017A2F9F01A11103C0E8
:1011E00080E090E07DC0AE3519F44115510559F10C
:1011F000E92DF0E0E417F5073CF4AD3569F1AD32C7
:1012000019F4BB2319F103C0B11101C08A2EE72FD5
:10121000E695E695E69586010E0F111DF801A72FBC
:10122000A7708C0102C0000F111FAA95E2F7D80128
:10123000B081BA2BB083781559F0781510F47F5F20
:10124000E6CF7150E4CF9924939403C0B1E001C07C
:10125000B0E04F5F5F4FBACFBB2319F08E81806241
:101260008E83911003C09924939415C0F601CE018A
:101270008196208120952193E817F907D1F7F3CFC4
:10128000E114F10429F0D7018C93F70131967F0125
:10129000615001F1912CC50169A30E94EE0A69A178
:1012A00097FD16C0282F269526952695F601E20F64
:1012B000F11D208130E0AC014770552702C0359503
:1012C00027954A95E2F720FDDBCFB5010E945E0B22
:1012D000911086CFE114F10411F0D7011C92C801DE
:1012E000A196EDE00C94F90B4F925F927F928F9252
:1012F0009F92AF92BF92CF92DF92EF92FF920F93A5
:101300001F93CF93DF931F92CDB7DEB78C012B01D4
:101310007A01FC0117821682A12CF801D380F20118
:10132000D3FC8591D3FE8191382F2F01882309F4B6
:10133000FCC090E039830E94C50A3981892B21F0D5
:10134000C8010E942208E9CF353241F4F201D3FCF2
:101350003591D3FE31912F01353269F4C8013983BB
:101360000E94EE0A398197FDDEC03817B1F2B8014C
:101370000E945E0BDAC03A3241F4D3FC3591D3FEC1
:1013800031912F01BB24B39401C0B12C712C20EDFD
:10139000230F2A3090F4FB2DF260BF2E672D70E0F2
:1013A00080E090E040E20E940208762EF201D3FC39
:1013B0003591D3FE31912F01EACFB1FE03C07110F8
:1013C00003C0B3C077247A94383619F03C3661F004
:1013D00014C0F201D3FC3591D3FE31912F01383680
:1013E00061F4FB2DF860BF2E8B2D8460B82EF201C6
:1013F000D3FC3591D3FE31912F01332309F495C0ED
:10140000632F70E088E690E039830E94CD0A39812D
:10141000892B09F48AC0B0FC07C0F701C080D180D5
:10142000C70102967C0102C0C12CD12C3E3651F47A
:10143000F8014681578160E070E02B2DC6010E94C3
:10144000F6076BCF3336A1F4B1FC02C07724739456
:10145000C8010E94EE0A97FD66C0C114D10429F0AC
:10146000F6018083C60101966C017A9489F757C012
:101470003B3559F49201A601672DC8010E94CC08A2
:101480002C01009709F04BC045C0C80139830E9468
:101490002208398197FD47C03F3669F128F4343678
:1014A00031F1393679F12BC0333769F03537F9F03E
:1014B00026C0C114D10429F0F6018082C60101962C
:1014C0006C017A9471F0C8010E94EE0A4C0197FDFC
:1014D00008C00E94C50A892B61F3B801C4010E94AB
:1014E0005E0BC114D104D9F0F601108218C0FB2D97
:1014F000F062BF2E07C08B2D8061B82E03C09B2DDC
:101500009064B92E2B2DA601672DC8010E943B08BF
:10151000811105C0F8018381807329F406C0B0FCF5
:10152000FCCEA394FACEAA2019F08A2D90E002C036
:101530008FEF9FEF0F90DF91CF911F910F91FF9051
:10154000EF90DF90CF90BF90AF909F908F907F9063
:101550005F904F900895F999FECF92BD81BDF89AA2
:10156000992780B50895262FF999FECF92BD81BDA8
:10157000F89A019700B4021639F01FBA20BD0FB6D1
:10158000F894FA9AF99A0FBE089591110EC180321B
:1015900019F089508550D0F70895FC010590061682
:1015A00021F00020D9F7C00108953197CF010895A7
:1015B000FC010590615070400110D8F7809590951E
:1015C0008E0F9F1F0895FC01615070400190011023
:1015D000D8F7809590958E0F9F1F0895CF93DF9336
:1015E000EC012B8120FF33C026FF0AC02F7B2B8309
:1015F0008E819F8101969F838E838A8190E029C08E
:1016000022FF0FC0E881F9818081992787FD90959D
:10161000009719F420622B831AC03196F983E8836E
:101620000EC0EA85FB85099597FF09C02B810196BD
:1016300011F480E101C080E2822B8B8308C02E81EF
:101640003F812F5F3F4F3F832E83992702C08FEF4B
:101650009FEFDF91CF9108950F931F93CF93DF9367
:10166000182F092FEB018B8181FD03C08FEF9FEFB6
:1016700020C082FF10C04E815F812C813D814217C6
:1016800053077CF4E881F9819F012F5F3F4F398335
:101690002883108306C0E885F985812F0995892B59
:1016A00029F72E813F812F5F3F4F3F832E83812F6C
:1016B000902FDF91CF911F910F910895FB0123810E
:1016C00020FF12C026FD10C08F3F3FEF930761F04F
:1016D00082832F7D20642383268137812150310925
:1016E00037832683992708958FEF9FEF0895FA0196
:1016F000AA27283051F1203181F1E8946F936E7F51
:101700006E5F7F4F8F4F9F4FAF4FB1E03ED0B4E041
:101710003CD0670F781F891F9A1FA11D680F791F82
:101720008A1F911DA11D6A0F711D811D911DA11D93
:1017300020D009F468943F912AE0269F11243019A3
:10174000305D3193DEF6CF010895462F4770405D3E
:101750004193B3E00FD0C9F7F6CF462F4F70405DED
:101760004A3318F0495D31FD4052419302D0A9F748
:10177000EACFB4E0A6959795879577956795BA9542
:10178000C9F700976105710508959B01AC010A2E08
:1017900006945795479537952795BA95C9F7620FDF
:1017A000731F841F951FA01D0895992788270895EA
:1017B0002F923F924F925F926F927F928F929F9261
:1017C000AF92BF92CF92DF92EF92FF920F931F934F
:1017D000CF93DF93CDB7DEB7CA1BDB0B0FB6F89400
:1017E000DEBF0FBECDBF09942A88398848885F8440
:1017F0006E847D848C849B84AA84B984C884DF80B1
:10180000EE80FD800C811B81AA81B981CE0FD11D94
:101810000FB6F894DEBF0FBECDBFED010895F8946A
:02182000FFCFF8
:1018220001011E0053544152540034736563204D2C
:101832006178205265616368656400256C640053B9
:10184200706565642054726170004761626520446E
:10185200616C657373616E64726F002020202020BA
:10186200202020202020202020202020004D6178D0
:1018720053706565643A200025326400256C64204B
:101882006D7300256C642E256C6420636D2F7300CC
:1018920054494D453A20200053504545443A2000D2
:1018A2004D4158202053504545440052454143483C
:1018B200454421005265636569766564205370650D
:1018C20065643A200025640025642E256420636D3A
:0418D2002F73000070
:00000001FF
